:04000000D8EF0BF03A
:1000080000C01EF001C01DF002C01CF003C01BF0B0
:1000180004C01AF005C019F008C018F009C017F09C
:100028000AC016F00BC015F0E1CF27F0E2CF28F098
:10003800E9CF25F0EACF26F0F3CF23F0F4CF24F070
:10004800F5CF22F0F8CF1FF0F7CF20F0F6CF21F050
:100058005DEC0AF022C0F5FF1FC0F8FF20C0F7FFD3
:1000680021C0F6FF23C0F3FF24C0F4FF1EC000F038
:100078001DC001F01CC002F01BC003F01AC004F040
:1000880019C005F018C008F017C009F016C00AF02A
:1000980015C00BF025C0E9FF26C0EAFF27C0E1FF25
:0600A80028C0E2FF110078
:1000AE000B6A0A6A096A00500402F4CF09F0F3CF12
:1000BE0008F001500502F4CF0BF0F3CF0AF0005018
:1000CE000502F3500926F4500A22E86A0B22015069
:1000DE000402F3500926F4500A22E86A0B2208C0E3
:1000EE0000F009C001F00AC002F00BC003F01200CC
:1000FE001E0E716E100E2B6E040E2C6E2BC0E1FFB9
:10010E002CC0E2FFE69E2BC0E1FF2CC0E2FFE69C76
:10011E00040E2B24E16E000E2C20E26EE68C180EDF
:10012E00316E040E326E31C0E1FF32C0E2FFE69E48
:10013E0031C0E1FF32C0E2FFE69C040E3124E16ED5
:10014E00000E3220E26EE68C020E2B24E16E000EC3
:10015E002C20E26E33C0E6FF34C0E6FF010E2B24E6
:10016E00E16E000E2C20E26E400EE66E2BC0E9FF13
:10017E002CC0EAFFEECF00F02BC0E1FF2CC0E2FF57
:10018E00400E0014E66E2BC0E9FF2CC0EAFFEECF46
:10019E0000F02BC0E1FF2CC0E2FF880E0010E66ECF
:1001AE002BC061F02CC062F0040E2B18006E00C044
:0401BE002BF0120010
:1001C20004012051800AD8A471D0C00E4C6E64D0B4
:1001D200040E006E190E016E000E026E00C049F090
:1001E20001C04AF002C04BF0120E4D6E000E4E6E70
:1001F2005DD0030E006E000E016E22C404F0000EEC
:10020200056E54DF440E0024E96E000E0120EA6EF2
:10021200EECF49F0EECF4AF0EECF4BF0020E49247A
:10022200F66E000E4A20F76E000E4B20F86E0900A3
:10023200F5CF00F00900F5CF01F000C04DF001C08C
:100242004EF034D02251525C23E3030E006E000EB6
:10025200016E22C404F0000E056E28DF3B0E00245E
:10026200E96E000E0120EA6EEECF49F0EECF4AF0C1
:10027200EECF4BF049C0F6FF4AC0F7FF4BC0F8FF84
:100282000900F5CF00F000C04DF0000E4E6E01D017
:100292004C6A0CD04C6A0AD02351010A99E02351CE
:0E02A200020AA7E02351030ACDE0F4D71200B0
:1002B00020C401F01F0E01160150010A01E08DD08B
:1002C00004012451000A01E088D02151060A3FE1CF
:1002D00034D04F50010A17E18C0E006E180E016EDB
:1002E000000E026E120E0026000E0122022200C035
:1002F00049F001C04AF002C04BF0090E4D6E000EED
:100300004E6EC00E4C6E23D04F50010A12E1B50E56
:10031000006E180E016E000E026E00C049F001C0A2
:100320004AF002C04BF0210E4D6E000E4E6EC00E14
:100330004C6E0DD0800E4C6E0AD004012351210A60
:10034000C8E02351220AE0E02351230AF3E020C44D
:1003500001F0600E0116050E006E005004E001323F
:10036000019EFF0FFBD70150010A01E036D022D0D9
:1003700034D033D0480E496E000E4A6E010E4D6ED9
:10038000000E4E6EC10E4C6E28D0800E4C6E23C4F3
:1003900048F023D02E0E496E000E4A6E010E4D6EAF
:1003A000000E4E6E810E4C6E18D0800E4C6E22C424
:1003B0002EF013D004012151010ADAE02151090A7B
:1003C000D8E02151020AD6E021510A0ADEE021518B
:0C03D000030AE0E021510B0AE8E01200F3
:1003DC00000E4E5C02E1080E4D5C10E24DC003F0C5
:1003EC004EC004F05E50000A03E1010E5E6E05D0B3
:1003FC005E50010A02E1020E5E6E04D0080E036E1E
:10040C00000E046E2FC0E1FF30C0E2FFE6922FC059
:10041C00E1FF30C0E2FFE6902FC0E9FF30C0EAFFF9
:10042C00EECF00F02FC0E1FF30C0E2FF045000100F
:10043C00E66E010E2F24E16E000E3020E26E03C03A
:10044C00E6FF03504D5C006E04504E58016E00C028
:10045C004DF001C04EF0280E00016E6F040E6F6F50
:10046C004CB02FD0035004102BE049C0F6FF4AC00B
:10047C00F7FF4BC0F8FF0900F5CF00F06EC0E1FFAD
:10048C006FC0E2FF00C0E6FF6E4B6F2B010E4924DC
:10049C00006E000E4A20016E000E4B20026E00C052
:1004AC0049F001C04AF002C04BF0010E035C006E33
:1004BC00000E0458016E00C003F001C004F0D2D746
:1004CC0024D00350041021E049C0E9FF4AC0EAFFE0
:1004DC006EC0E1FF6FC0E2FFEECFE6FF6E4B6F2BFD
:1004EC00010E4924006E000E4A20016E00C049F036
:1004FC0001C04AF0010E035C006E000E0458016E40
:0C050C0000C003F001C004F0DCD71200B6
:100518000401286B296B42D04C8E28812D50010A8A
:10052800D8B4288350D04C8E4ED04C8E24BF16D0D1
:1005380024C403F00F0E031603C000F0000E016E72
:10054800003600900136290E0024E96E000E0120C5
:10055800EA6EEECF04F0EECF05F015D024C403F018
:100568000F0E031603C000F0000E016E0036009057
:1005780001362F0E0024E96E000E0120EA6EEECF40
:1005880004F0EECF05F004C0E9FF05C0EAFFEECFA6
:1005980001F001A402D0010E286F15D020C401F08B
:1005A8001F0E01160150000AB7E020C401F01F0E0B
:1005B80001160150010AB7E020C401F01F0E011610
:1005C8000150020AB2E04CAE07D0280E496E040E64
:0A05D8004A6E4C80020E4D6E1200B8
:1005E2004C8E716A366A22C44FF04F50000A03E102
:0E05F200100E356E03D0200E356E80DD120027
:1006000004012251010A0FE120C401F01F0E01165E
:100610000150000A08E14C8E2151030A03E1010E4A
:100620002D6E01D02D6A2251000AD8A48BD020C48F
:1006300001F01F0E01160150020AD8A483D024C471
:1006400001F00F0E01160150000AD8B47BD04C8E79
:1006500024BF16D024C403F00F0E031603C000F00D
:10066000000E016E003600900136290E0024E96E5E
:10067000000E0120EA6EEECF04F0EECF05F015D0AB
:1006800024C403F00F0E031603C000F0000E016E29
:100690000036009001362F0E0024E96E000E012076
:1006A000EA6EEECF04F0EECF05F02151030A07E128
:1006B00004C0E1FF05C0E2FF840EE66E43D024C40F
:1006C00000F00F0E0016700E026E0F0E036E00503B
:1006D0000226D8B0032A02C0E9FF03C0EAFFFE0EDB
:1006E000EE14006EEECF01F0FF0E011602C0E1FF26
:1006F00003C0E2FF00C0E6FF01C0E6FF24AF11D057
:1007000004C0E1FF05C0E2FFE66A040E0418006EB3
:1007100000C004F004C0E1FF05C0E2FF400EE66E39
:1007200011D004C0E1FF05C0E2FF880EE66E040EA2
:100730000418006E00C004F004C0E1FF05C0E2FF31
:06074000C80EE66E120077
:100746006D984CBE4AD0000165AF28D0020E5F6E90
:10075600010E2F24E16E000E3020E26EE66A2FC0F5
:10076600E1FF30C0E2FFC80EE66E010E6C25E16EB9
:10077600000E6D21E26E080EE66E020E6C25E16E2D
:10078600000E6D21E26E280EE66E040EE66E6CC05B
:10079600E1FF6DC0E2FFC80EE66E1ED0010E6C25AD
:1007A600E16E000E6D21E26E080EE66E020E6C25FD
:1007B600E16E000E6D21E26E200EE66E040EE66E10
:1007C6006CC0E1FF6DC0E2FF8C0EE66E2FC0E1FF4C
:1007D60030C0E2FF840EE66E80D0000165BF7DD09A
:1007E600040120AF52D04E50275D02E14D50265DE8
:1007F60004E226C44DF027C44EF0EDDD010E5F6E17
:10080600010E00016C25E16E000E6D21E26E080EF0
:10081600E66E020E6C25E16E000E6D21E26E200E74
:10082600E66E040EE66E6CC0E1FF6DC0E2FF800E60
:10083600E66E606B010E5324E16E000E5420E26EEC
:10084600080EE66E020E5324E16E000E5420E26E90
:10085600200EE66E040EE66E53C0E1FF54C0E2FFC2
:10086600840EE66E010E606F020E2F24E16E000EFE
:100876003020E26E280EE66E040EE66E2FC0E1FF13
:1008860030C0E2FFC80EE66E28D00001020E5F6E91
:10089600010E2F24E16E000E3020E26EE66A2FC0B4
:1008A600E1FF30C0E2FFC80EE66E010E6C25E16E78
:1008B600000E6D21E26E080EE66E020E6C25E16EEC
:1008C600000E6D21E26E280EE66E040EE66E6CC01A
:0C08D600E1FF6DC0E2FFC80EE66E1200EC
:0808E200475201E0E4DC1200C2
:1008EA005F6A2FC0E1FF30C0E2FFE66A040E2F18EC
:1008FA00E16E30C0E2FF000EE21AE66A000165AF5F
:06090A0001D0659F120000
:10091000010E5324E96E000E5420EA6EEECF00F073
:1009200000C002F0000E0001675D02E10250665D4A
:1009300003E266C002F00AD00250665D006E000E4F
:100940006759016E00C066F001C067F0036A02508B
:10095000035C1CE2280EE96E040EEA6E0350E926E1
:10096000D8B0EA2AEECF00F063C0E1FF64C0E2FF36
:1009700000C0E6FF010E6325006E000E6421016ECB
:1009800000C063F001C064F0032AE1D7000E006EDE
:100990006751005C02E16651000828E2010E6C25F7
:1009A000E16E000E6D21E26E080EE66E020E6C2501
:1009B000E16E000E6D21E26E280EE66E040EE66E0C
:1009C00053C0E9FF54C0EAFFEECF00F000BC07D0EF
:1009D0006CC0E1FF6DC0E2FFC80EE66E06D06CC0D1
:1009E000E1FF6DC0E2FF880EE66E19D0010E6C25A6
:1009F000E16E000E6D21E26E080EE66E020E6C25B1
:100A0000E16E000E6D21E26E200EE66E040EE66EC3
:100A10006CC0E1FF6DC0E2FF840EE66E659F1200C0
:100A20008C0E446E180E456E000E466E160E3B6E12
:100A3000190E3C6E000E3D6ED60E3E6E180E3F6EC9
:100A4000000E406EEE0E416E180E426E000E436EAA
:020A5000120092
:0E0A5200160E6F6E9F0E6B6E3B0E696E1200DD
:100A600020C401F0600E0116050E006E005004E077
:100A70000132019EFF0FFBD70150000A01E059D05F
:100A800035D04C8E080E356E54D0E1EC00F051D0CC
:100A9000A8DD4FD04F0E496E000E4A6E4C80010EFD
:100AA0004D6E4C8E46D038DD44D0AADD42D0360E95
:100AB000006E000E016E24510026D8B0012A00C03D
:100AC00049F001C04AF04C80010E4D6E4C8E31D081
:100AD0004C8E360EE16E000EE26E2451E126D8B047
:100AE000E22A22C4E6FF25D024D023D004012151DC
:100AF000050AC7E02151060AC8E02151090AC8E0E9
:100B00002151080AC7E02151000ACDE02151010A14
:100B1000CCE02151030AC9E021510A0AC8E0215161
:100B20000B0AD6E02151070ADFE021510C0ADDE073
:040B3000DCD71200FC
:100B34006D92699468A403D0FB0E6816FBD712006B
:100B440070A019D053C0E9FF54C0EAFFEECF01F002
:100B54000150800A0FE12FC0E9FF30C0EAFFEECF59
:100B640001F00150840A06E153C0E1FF54C0E2FFE2
:0C0B74008C0EE66E7090DF0E681612000A
:100B8000040E2F18006E00C02FF03550080A0AE13D
:100B900022C46EFF6E50000803E2100E356E02D0C4
:100BA000040E356E5F50010A3AE1020E2F24E16E09
:100BB000000E3020E26E280EE66E040EE66E0EDCAD
:100BC0005E50020A07E12FC0E1FF30C0E2FF840E51
:100BD000E66E24D0040E2F18006E00C02FF02FC038
:100BE000E9FF30C0EAFFEECF00F000BC0CD0040EED
:100BF0002F18006E00C02FF02FC0E1FF30C0E2FFC1
:100C0000C80EE66E0BD0040E2F18006E00C02FF039
:100C10002FC0E1FF30C0E2FF880EE66E01D065DE36
:020C20001200C0
:100C22002FC0E9FF30C0EAFFEECF00F000AE05D0E2
:100C32002FC0E1FF30C0E2FFE66A5E6A5F6A4D6A7A
:0C0C42004E6A4C6A0CDF4CDE7DDD1200B7
:0A0C4E006984EF0E68166D82120033
:100C5800E3DE0001616B626B506A516A6A6A686A16
:100C6800F4DE6D8C6E6A716A6D9C596A5A6A000E60
:100C78005A5C02E1080E595C17E259C000F05AC0EC
:100C880001F0003600900136003600900136000E63
:100C98000024E16E040E0120E26EE66AE66AE66A66
:100CA800E66A594A5A2AE3D7160E706E68A603D028
:100CB800F70E6816FBD74C6A656B666B676B6D98A9
:0E0CC800080E2F6E040E306E4F6A356A120051
:100CD6005F50020A02E119DE1ED004DE6051000AEE
:100CE60019E1010E6C25E16E000E6D21E26E080E13
:100CF600E66E020E6C25E16E000E6D21E26E200E90
:100D0600E66E040EE66E6CC0E1FF6DC0E2FF8C0E6F
:080D1600E66E01D0606B1200D3
:040D1E00A19A120084
:100D220000018451000A12E083C000F0000E016E3F
:100D32000036009001362F0E0024E96E000E0120CD
:100D4200EA6EEECF04F0EECF05F011D083C000F0D2
:100D5200000E016E003600900136290E0024E96E65
:100D6200000E0120EA6EEECF04F0EECF05F0020E87
:100D72000424E16E000E0520E26E85C0E6FF86C007
:100D8200E6FF010E0424E16E000E0520E26E87C02C
:100D9200E6FF04C0E9FF05C0EAFFEECF00F004C0A1
:100DA200E1FF05C0E2FF400E0014E66E04C0E9FF59
:100DB20005C0EAFFEECF00F004C0E1FF05C0E2FF8C
:100DC200880E0010E66E8451000A1BE083C000F01A
:100DD200000E016E0036009001362F0E0024026EC6
:100DE200000E0120036E02C0E9FF03C0EAFF040EF9
:100DF200EE18006E02C0E1FF03C0E2FF00C0E6FF92
:100E02001AD083C000F0000E016E00360090013649
:100E1200290E0024026E000E0120036E02C0E9FFBB
:100E220003C0EAFF040EEE18006E02C0E1FF03C029
:100E3200E2FF00C0E6FF04C000F005C001F01200AE
:100E4200000E0001841902E1000E831902E1016A19
:100E52000AD083C0E9FF84C0EAFFEECF00F0000EA3
:0C0E620000BE010E016E01C000F0120085
:100E6E003550000A09E16D6A696AECDD6DB602D093
:100E7E006D86FCD7010E356E3550010A08E16DBA4C
:100E8E0006D0686A696A69806988020E356E68A440
:100E9E0005D069A403D0FB0E681645DE6DA202D004
:100EAE0037DFD5D068A018D069A016D0CEDE040EDC
:100EBE00356E200E0401026F040E036F080E016FD3
:100ECE00000E0015006E00C000F48C0E0011006EB6
:100EDE0000C000F4FE0E681668A805D069A803D0FD
:100EEE00AFDEEF0E681668AC04D069AC02D0BF0E50
:100EFE00681668AA03D069AA01D01DDE68A202D0C6
:100F0E0069B26A6A040E355C02E202DFA0D069A6FD
:100F1E009DD00001846B040E845DD8B097D068A676
:100F2E0091D06CCF5BF0F70E6816780E5B14016EE5
:100F3E000150000AD8A485D0FD0E5B14016E026A22
:100F4E00FF0E0216000E021802E1000E01186BE1F0
:100F5E007E0E5B14016E01C003F00332039E03C0CC
:100F6E0000F0000E016E0036009001360036009043
:100F7E000136000E0024026E040E0120036E02C024
:100F8E0053F003C054F002C06CF003C06DF0040EB9
:100F9E006C19006E00C06CF002C0E9FF03C0EAFFDE
:100FAE00EECF00F000C001F03C0E01160132019EA2
:100FBE000132019E01500D0A34E1020E5324E96EF6
:100FCE00000E5420EA6EEECF01F0EECF02F002508A
:100FDE00040A02E1280E011822E1020E5324E16EEA
:100FEE00000E5420E26E200EE66E040EE66E836B4B
:100FFE00080E835D14E2200EE16E040EE26E835144
:10100E00E126D8B0E22A280EE96E040EEA6E83516C
:10101E00E926D8B0EA2AEECFE6FF832BE9D7FADD30
:10102E0001D052DE0DD0FD0E5B14016E026AFF0E72
:10103E000216000E021802E1040E011801E199DDFC
:10104E0000D001D003D00001842B65D761DE1200E1
:0A105E00D08EA28AA08AF28E120042
:101068000001806B816B826B020E7D25F66E000E8F
:101078007E21F76E000E7F21F86E0900F5CF05F08E
:10108800030E7D25F66E000E7E21F76E000E7F2181
:10109800F86E0900F5CF00F000C003F0000E046EF2
:1010A80003C001F0006A05500024066E000E0120FE
:1010B800076E7DC008F07EC009F07FC00AF0010EFF
:1010C8000824F66E000E0920F76E000E0A20F86E4E
:1010D8000900F5CF01F00150020A1BE1060E0824B1
:1010E800F66E000E0920F76E000E0A20F86E090051
:1010F800F5CF01F00150805D0CE2060E0824F66E73
:10110800000E0920F76E000E0A20F86E0900F5CFD0
:1011180080F0010E0824F66E000E0920F76E000E0E
:101128000A20F86E0900F5CF01F00150040A1BE10E
:10113800080E0824F66E000E0920F76E000E0A202D
:10114800F86E0900F5CF01F00150805D0CE2080E41
:101158000824F66E000E0920F76E000E0A20F86EBD
:101168000900F5CF80F008C0F6FF09C0F7FF0AC0F4
:10117800F8FF0900F5CF00F000508125016E000E40
:101188008221026E01C081F002C082F00750025C29
:1011980002E10650015C01E30FD008C0F6FF09C068
:1011A800F7FF0AC0F8FF0900F5CF00F00050082645
:0E11B800000E09220A2283D780C000F0120028
:1011C600040E006E190E016E000E026E0E0E002445
:1011D600F66E000E0120F76E000E0220F86E090072
:1011E600F5CF03F003C004F00F0E0024F66E000ED8
:1011F6000120F76E000E0220F86E0900F5CF01F00F
:101206000150035C12E2040E006E190E016E000E10
:10121600026E0F0E0024F66E000E0120F76E000E11
:101226000220F86E0900F5CF04F0040E006E190EC8
:10123600016E000E026E100E0024F66E000E0120E6
:10124600F76E000E0220F86E0900F5CF01F001508E
:10125600045C12E2040E006E190E016E000E026EA0
:10126600100E0024F66E000E0120F76E000E02200E
:0E127600F86E0900F5CF04F004C000F012007D
:10128400200E355C03E36DB201D002D0006A46D073
:1012940050C083F051C084F0D2DD00523EE180C0E2
:1012A40083F0010E846F7DC085F07EC086F07FC020
:1012B40087F035DD00C050F001C051F0556A566A20
:1012C400576A586A50C083F051C084F0B8DD0052A8
:1012D4000EE0010E016E0150000A01E1C6DD555019
:1012E40056105710581002E0006A18D0EBD750C0BF
:1012F40081F051C082F0000E511802E1000E501826
:101304000AE0010E00018125E96E000E8221EA6ED9
:0E131400EECF00F003D0006A01D0006A120094
:1013220076C07DF077C07EF078C07FF0010E0001BC
:06133200806FA7DF12002E
:1013380000017C6B200E355C03E36DB201D002D056
:10134800006A2DD061C083F062C084F076DD00525F
:1013580025E161C07AF062C07BF0000E621902E1FB
:10136800000E61190AE0010E7A25E96E000E7B2154
:10137800EA6EEECF00F000C07CF079C083F0846B99
:1013880076C085F077C086F078C087F0C6DC00C0EC
:1013980061F001C062F07CC000F001D0006A120068
:1013A8003550000A0BE16D6A696A29EC05F053DED5
:0E13B8006DB602D06D86FCD7010E356E1200A8
:0C13C600240E0D6E0D2EFED7000012004C
:1013D200F9DE00C076F08C0E00017D6F180E7E6F74
:1013E200000E7F6F40DE00C077F07651005C03E2B2
:0C13F20076C000F002D077C000F01200BE
:0813FE00BE6ABD98BD9A120001
:10140600E5DF00C052F0010E476E72C033F073C0C4
:1014160034F074C05CF075C05DF01BDC010E016E2B
:0A1426000150010A01E1BDDF1200D0
:10143000640E376E170E386E720E396E000E3A6EED
:0C144000C26A070EC012C08EC2801200EB
:10144C00CB50010F006E016A000E012272C004F035
:10145C00000E056E57EC00F0060E026E00C004F094
:10146C0001C005F0025005E005320432059EFF0F65
:10147C00FAD7040E016E04C000F0015004E00036EF
:10148C000090FF0FFBD7300E0014036E04C000F069
:10149C0005C001F001320032019E01320032019E82
:0E14AC0000C0BEFF0F0EBD160350BD12120091
:1014BA003550010A07E16DBA05D0686A6980698802
:1014CA00020E356E68A406D069A404D0FB0E681615
:1014DA009AEC05F06DA202D01DDCDDD068A019D00F
:1014EA0069A017D02CEC06F0040E356E200E04010C
:1014FA00026F040E036F080E016F000E0015006ED6
:10150A0000C000F48C0E0011006E00C000F4FE0E44
:10151A00681668A806D069A804D027EC06F0EF0E72
:10152A00681668AC04D069AC02D0BF0E681668AA07
:10153A0004D069AA02D0A2EC05F068A202D069B26E
:10154A006A6A040E355C03E28FEC06F0A4D069A641
:10155A00A0D00001896B040E895DD8B09AD068A624
:10156A0094D06CCF5BF0F70E6816780E5B14016EA0
:10157A000150000AD8A488D0FD0E5B14016E026ADD
:10158A00FF0E0216000E021802E1000E01186DE1AC
:10159A007E0E5B14016E01C003F00332039E03C08A
:1015AA0000F0000E016E0036009001360036009001
:1015BA000136000E0024026E040E0120036E02C0E2
:1015CA0053F003C054F002C06CF003C06DF0040E77
:1015DA006C19006E00C06CF002C0E9FF03C0EAFF9C
:1015EA00EECF00F000C001F03C0E01160132019E60
:1015FA000132019E01500D0A35E1020E5324E96EB3
:10160A00000E5420EA6EEECF01F0EECF02F0025047
:10161A00040A02E1280E011822E1020E5324E16EA7
:10162A00000E5420E26E200EE66E040EE66E886B03
:10163A00080E885D14E2200EE16E040EE26E8851F7
:10164A00E126D8B0E22A280EE96E040EEA6E885125
:10165A00E926D8B0EA2AEECFE6FF882BE9D711ECC3
:10166A0006F002D06BEC06F00ED0FD0E5B14016E94
:10167A00026AFF0E0216000E021802E1040E011899
:10168A0002E1C0EC05F000D001D003D00001892BA3
:08169A0062D78FEC06F012008C
:1016A2000900F5CFE6FF0006FBE10106F9E11200B1
:0816B200BB6ABA98BA9A120053
:1016BA00CB50010F006E016A000E012272C004F0C5
:1016CA00000E056E57EC00F0060E026E00C004F024
:1016DA0001C005F0025005E005320432059EFF0FF5
:1016EA00FAD7040E016E04C000F0015004E000367F
:1016FA000090FF0FFBD7300E0014036E04C000F0F9
:10170A0005C001F001320032019E01320032019E11
:0E171A0000C0BBFF0F0EBA160350BA12120029
:1017280083CF41F5400E0001766F050E776F400EAE
:0C173800786FF3DD005201E1F5D71200DC
:0A1744009482CA94F00EBA16120047
:10174E0033C076F034C077F0400E0001786F010E92
:06175E00796FEBDD1200C3
:10176400830EC21672C000F000360090003600905E
:101774000050C21226DEC282C2A201D0FDD7C4CF5D
:0E17840001F0006AC3500012000E01121200A4
:0A1792009492CA840C0EBA121200E1
:0A179C009484CA94F00EBD161200EA
:0A17A6009494CA840C0EBD121200C8
:1017B000FF0E926E936A816A956A836A946A826A5E
:1017C000CA80CA82680ECB6E1ADE0001726B3EDEE2
:1017D000CA80CA82680ECB6E6CDF0001726B6DDF4F
:1017E00027DE000E0001726F050E736F400E746FDE
:1017F000050E756F08DE010E0001726FB3DF00C0C9
:1018000070F001C071F071C042F570C043F58CDF1B
:101810009EDF0050000A1FE005010151010A06E1A8
:1018200091DFC1DF02C572F011DE15D00501015153
:10183000020A06E1B3DFADDF02C572F03EDF0BD076
:1018400005010151000A03E1A9DF7CDF04D0015149
:10185000050AD8B4816A400E0001766F050E776FD5
:10186000400E786F5EDD005201E1F5D7030E0B6E7E
:101870008A0E0C6E550E0D6E0D2EFED70C2EFCD75B
:0C1880000B2EFAD700000000B6D7FFD7EF
:10188C000902290001010080640904000002030020
:10189C0000000921010100012221000705810340FC
:0918AC00000107050103400001E1
:1018B5000600FF0901A10119012940150026FF00B5
:1018C50075089540810219012940750895409102D6
:0118D500C052
:1018D60018034C007500690073005F0052006F002A
:0818E6006D00650072006F0047
:1018EE00160342006F00620069006E006100640022
:0618FE006F0072006100A2
:10190400120100020000000805120100010001029A
:021914000001D0
:0419160004030904B9
:020000040030CA
:0E000000240C3F1EFF8381FF0FC00FE00F4056
:00000001FF
